:02000002B0004C
:1040000000400B002C530B00000006000C000502C2
:084010000401E50C00000000B2
:0440180050500B00F9
:10401C0009480A49884208B505D0094A824202D0AB
:10402C00121A00F05DFF0748074A0021121A00F02F
:10403C0065FF014808BD00BF40E6032098520B0005
:10404C00ACE60320ACE60320EDE7032070B5074E89
:10405C00074C00F015FEA41BA4080025AC4200D1AF
:10406C0070BD56F8043B98470135F7E748520B00F2
:10407C006C520B0000F013B808B500F027F8BDE83F
:10408C00084000F0B5BD00F01BBA00F021BA007872
:10409C00B0FA80F04009704701230370704708B5EF
:1040AC0000F020FD4FF4165100F010FD00F0ECFE76
:1040BC004FF4165100F0B2FC0021052000F050FE28
:1040CC00BDE808400121072000F04ABE38B500F0D9
:1040DC00DBFE03681B69984700282FDD00F0D4FE37
:1040EC0003685B699847044600F0FCFC002C05460D
:1040FC0012DA2D2100F0E2FB61420A22284600F080
:10410C00ECFB284600F0DDFB012C07D121460720F3
:10411C00BDE8384000F035BE2146EEE7002CF5D066
:10412C003F2C0BD100F0B0FE0446052000F042FEFF
:10413C0081B22046BDE8384000F073BC38BD0000A9
:10414C0010B5074B074A9A600024C3E900440320CA
:10415C0000F02AF921460120BDE8104000F02CB9EE
:10416C00ACE603200000FFFF08B5024B1B685B6C3C
:10417C00019308BD4802030008B5024B1B685B683D
:10418C00019308BD1802030008B5024B1B685B695C
:10419C00019308BD1802030008B5024B1B689B680D
:1041AC00019308BD2C02030008B5024B1B68DB68A9
:1041BC00019308BD2C02030008B5024B1B681B6958
:1041CC00019308BD2C02030008B5024B1B685B6908
:1041DC00019308BD2C02030008B5024B1B681B6A37
:1041EC00019308BD2802030008B5024B1B685B6AEB
:1041FC00019308BD2802030008B5024B1B689B6A9B
:10420C00019308BD2802030008B5024B1B68DB6A4A
:10421C00019308BD2802030008B5024B1B681B6BF9
:10422C00019308BD2802030008B5024B1B685B6BA9
:10423C00019308BD2802030008B5024B1B681B6CD8
:10424C00019308BD2802030008B5024B1B685B698B
:10425C00019308BD6402030008B5024B1B689B6800
:10426C00019308BD6802030008B5024B1B68DB68AC
:10427C00019308BD6802030008B5024B1B68DB699B
:10428C00019308BD3002030008B5024B1B681B6A82
:10429C00019308BD3002030008B5024B1B68DB68B4
:1042AC00019308BD3C02030008B5024B1B681B6957
:1042BC00019308BD3C02030008B5024B1B685B6907
:1042CC00019308BD3C02030008B5024B1B689B69B7
:1042DC00019308BD3C02030008B5024B1B68DB6967
:1042EC00019308BD3C02030008B5024B1B681B6A16
:1042FC00019308BD3C02030008B5024B1B689B6A86
:10430C00019308BD3C02030008B5024B1B68DB6A35
:10431C00019308BD3C02030008B5024B1B681B6BE4
:10432C00019308BD3C02030008B5024B1B681B6CD3
:10433C00019308BD3C02030008B5024B1B681B68C7
:10434C00019308BD4C02030008B5024B1B685B6867
:10435C00019308BD4C02030008B5024B1B681B6996
:10436C00019308BD4C02030008B5024B1B685B6946
:10437C00019308BD4C02030008B5024B1B689B69F6
:10438C00019308BD4C02030008B5024B1B68DB69A6
:10439C00019308BD4C02030008B5024B1B681B6A55
:1043AC00019308BD4C02030008B5024B1B685B6807
:1043BC00019308BD2002030008B5024B1B68DB6AA1
:1043CC00019308BD2002030008B5034B1B68D3F80A
:1043DC008830019308BD00002002030008B5034B90
:1043EC001B68D3F89430019308BD00002002030031
:1043FC0008B5024B1B68DB6B019308BD440203003C
:10440C0008B5024B1B685B68019308BD40020300B2
:10441C0008B5024B1B689B68019308BD4002030062
:10442C0008B5024B1B68DB68019308BD4002030012
:10443C0008B5024B1B681B69019308BD40020300C1
:10444C0008B5024B1B685B69019308BD4002030071
:10445C0008B5024B1B689B69019308BD4002030021
:10446C0008B5024B1B68DB69019308BD40020300D1
:10447C0008B5024B1B681B6A019308BD4002030080
:10448C0008B5024B1B681B6B019308BD400203006F
:10449C0008B5024B1B685B6B019308BD400203001F
:1044AC0008B5024B1B681B6C019308BD400203004E
:1044BC0008B5024B1B685B6C019308BD40020300FE
:1044CC0008B5024B1B681B68019308BD1C02030056
:1044DC0008B5024B1B685B68019308BD1C02030006
:1044EC0008B5024B1B681B6C019308BD1C02030032
:1044FC0008B5024B1B685B6C019308BD1C020300E2
:10450C00024800230360FFF72FBE00BFB8E603206C
:10451C00002240681146FFF7ABBF002240681146ED
:10452C00FFF7B6BF40680022FFF7AABF4068002221
:10453C0081F00101FFF794BF002340681A46194629
:10454C00FFF786BF002340681A461946FFF778BF6D
:10455C00002240681146FFF76BBF002240681146ED
:10456C00FFF756BF406800220221FFF759BF002316
:10457C0040681A46FFF744BF024B03225A60024AB6
:10458C001A607047BCE603206C500B007047F8B5FE
:10459C00064615460C468F18BC4206D0336814F8F4
:1045AC00011B9B6830469847F6E72846F8BD007C0F
:1045BC000022FFF711BE007C0021FFF715BE007C26
:1045CC000021FFF719BE007C0021FFF71DBE007C07
:1045DC000021FFF721BE10B514210446FFF755FD4D
:1045EC00204610BD10B54FF47A73044608460021DE
:1045FC00C4E90113034B236020741146FFF71CFE22
:10460C00204610BDA8500B00704710B51821044669
:10461C00FFF73BFD204610BDF0B5037D062B8DB09A
:10462C000E4600F104074FF0000412D000F108050B
:10463C0015F8011D0A22304600F04FF9AF42044430
:10464C0019D0002CF4D02E21304600F037F9044458
:10465C00EEE72F236A4639460A208DF80040FFF713
:10466C00F3FD684600F080FC33680246DB6869465F
:10467C0030469847044620460DB0F0BD10B5054BAA
:10468C000446112240F8043B002100F037FC204680
:10469C0010BD00BFD0500B000346074A10B543F8BD
:1046AC00042B01F1100251F8044B43F8044B9142D6
:1046BC00F9D10A781A7010BDD0500B0010B59DF8C6
:1046CC00084044EA032343EA024242EA016104231C
:1046DC004160037510BD000007B5064B0360CB7835
:1046EC0000938B784A780978FFF7E8FF03B05DF800
:1046FC0004FB00BFD0500B00014B024A1A607047FC
:10470C00C4E60320DC500B00002340681A46FFF778
:10471C0077BE406800220221FFF782BE002240686B
:10472C001146FFF775BE002240681146FFF780BEA8
:10473C00002340681A461946FFF782BE00234068E2
:10474C001A461946FFF784BE40680021FFF7A8BE41
:10475C0040680021FFF7ACBE4068002281F00101E7
:10476C00FFF77EBE40680022FFF78ABE0022406839
:10477C001146FFF78DBE002240681146FFF778BE48
:10478C002DE9F04395B014460D460746FFF776FF2A
:10479C0000211C220DA8009100F0B0FB40230C93CB
:1047AC0020466B460CAA0021FFF75EFD044600284C
:1047BC004BD1024601216868FFF73AFE0221804680
:1047CC0022466868FFF734FE009E81462146002E83
:1047DC003BD0002939D17368022B03D00A2B11D09E
:1047EC00F669F4E7B8F1000FFAD0716906A8043144
:1047FC0007ADFFF771FF0FCD3C1D0FC42B68237065
:10480C004146EDE7B9F1000FEAD07469102201A816
:10481C0000F074FB06238DF8143001AD04F108038D
:10482C001834186859682A4603C20833A34215463F
:10483C00F7D101A906A807ADFFF72EFF0FCD3C1D40
:10484C000FC42B6823704946CAE70098FFF704FD94
:10485C00384615B0BDE8F083024B034A1A600022BB
:10486C005A607047C8E60320E8500B00F8B50646BE
:10487C000D468F180024BD420CD0336815F8011B6F
:10488C009B6830469847031E01DB1C44F3E7002C61
:10489C0008BF1C462046F8BD13B50446084659B15E
:1048AC00019100F061FB23680199DB680246204608
:1048BC0002B0BDE81040184702B010BD03689B68F9
:1048CC00184738B50D210546FFF7F8FF0A210446B5
:1048DC002846FFF7F3FF204438BD30B58BB00023DA
:1048EC00012A8DF8243098BF0A2209AC0D46B1FB81
:1048FC00F2F101FB125303F0FF03092B94BF303389
:10490C003733DBB2AA4204F8013DEFD92146FFF759
:10491C00C3FF0BB030BD0000014B00229A60704702
:10492C00D0E6032010B5044608462170FFF7A4FC1E
:10493C0000236360204610BD054B02221A60054B14
:10494C00054A9A600020C3E90000FFF72DBD00BFA7
:10495C00ECE60320E0E603200000FFFF024B1A68A0
:10496C00024B1A60704700BF40E60320F0E60320BC
:10497C0070474174704708B5007CFFF7BDFC20EA16
:10498C00E07008BD08B5007CFFF78EFC20EAE070F3
:10499C0008BD08B5007CFFF797FC40EAE07008BD45
:1049AC0008B5007CFFF788FC40EAE07008BD007C8D
:1049BC00FFF792BC37B5457C04462DB1207C03B083
:1049CC00BDE83040FFF768BC007C0191FFF794FC18
:1049DC0000280199F2DC284603B030BD10B5142133
:1049EC000446FFF752FB204610BD000010B54FF4F3
:1049FC007A730446084611460022C4E90123044B8D
:104A0C002360012320746374FFF78EFC204610BDD5
:104A1C0040510B00007C0023FFF776BC0022FFF70F
:104A2C00F9BF007CFFF778BC417470477047704742
:104A3C0008B50021007CFFF79FFC40EAE07008BD40
:104A4C0008B50121007CFFF797FC40EAE07008BD37
:104A5C0008B5007CFFF788FC20EAE07008BD08B5BB
:104A6C00007CFFF779FC20EAE07008BD13B5044622
:104A7C00007C0191FFF778FC0028019901DC607C37
:104A8C0020B1207CFFF780FC20EAE07002B010BD62
:104A9C00007CFFF781BC10B514210446FFF7F5FA32
:104AAC00204610BD10B54FF47A7304460846002119
:104ABC00C4E90113044B2360012320746374114671
:104ACC00FFF73AFC204610BD70510B00007C002211
:104ADC00FFF73ABC10B514220446002100F00EFA80
:104AEC00204610BD10B50F4C88B003A8FFF7F2FF9D
:104AFC002178BFF35B8F11F001010FD1204601919A
:104B0C00FFF7C5FA019948B103AA0748FFF7CAFF96
:104B1C002046FFF7C1FA054800F0DCF9024808B05E
:104B2C0010BD00BFF4E60320F8E60320394A0B0061
:104B3C00002240681146FFF77BBC002240681146FA
:104B4C00FFF796BC002240681146FFF7A1BC4068F5
:104B5C000022FFF795BC4068002281F00101FFF7AD
:104B6C007FBC002340681A461946FFF771BC00232E
:104B7C0040681A461946FFF763BC0022406811468C
:104B8C00FFF746BC406800220221FFF749BC002316
:104B9C0040681A46FFF734BC024B04225A60024AA2
:104BAC001A6070470CE70320A0510B00014B1860F2
:104BBC00704700BF44E6032008B50B4B43B1FFF729
:104BCC0091FF03681B699847002801DDAFF3008053
:104BDC00064B43B100F058F903681B69984700284D
:104BEC0001DDAFF3008008BD0000000000000000F4
:104BFC0008B5FFF7E1FFFFF7C7FA014B186008BDD6
:104C0C0028E703200548064A064908B5121A00F0A1
:104C1C0067F9054B054A1A6008BD00BF00F4032074
:104C2C0004F4032094520B0000F403201E1C279A5A
:104C3C0007B5002300931A466FF07701FFF7CEFB00
:104C4C0003B05DF804FB000007B543880A2B08D0BD
:104C5C00502B0BD1094B1B684BB103B05DF804EB27
:104C6C001847FFF7E5FF03B05DF804FB0023009342
:104C7C001A466FF07701FFF7B1FBF4E718E7032052
:104C8C0010B512480021FFF733FC114B1A68114B79
:104C9C009A42114B0CBF012200221A7001D0FFF76F
:104CAC00B1FFFFF769FA044600F030F90B4B13B172
:104CBC002046AFF3008000210848FFF799FBBDE8C0
:104CCC00104007480021FFF77FBB00BFB94B0B001A
:104CDC0000F403201E1C279A14E703200000000098
:104CEC00554C0B00232813B502D9002002B010BD7F
:104CFC00A0F10B03022B1AD8174C2178BFF35B8F52
:104D0C0011F001010BD120460191FFF7C0F9019977
:104D1C0028B11248FFF706FE2046FFF7BDF90F4BEE
:104D2C001878FFF7B1FA0028DFD10120DEE701285F
:104D3C0009D800F069F80021007CFFF775FA80F0C3
:104D4C000100C0B2D2E709380128EED800F09CF877
:104D5C00007CFFF7C9FAF2E71CE7032020E70320E9
:104D6C00232838B504460D460AD8FF2908D0FFF78A
:104D7C00B9FF28B129462046BDE83840FFF70CBAE8
:104D8C0038BD38B504460D46FFF70EFAFF2810D093
:104D9C00062804D84D2323FA00F0C30709D4204673
:104DAC00FFF7A0FF28B129462046BDE83840FFF7A1
:104DBC0003BA38BD10B50446FFF7F6F9031FDBB292
:104DCC00012B08D92046FFF78DFF20B12046BDE806
:104DDC001040FFF7F9B9002010BD704738B52025F9
:104DEC00142304460360856005610649284600F0DB
:104DFC006FF804496060284600F06AF8E0602046CD
:104E0C0038BD00BFD4510B0030B50E4D2978BFF31F
:104E1C005B8F11F0010487B011D12846FFF737F9E9
:104E2C0068B101A8FFF7DAFF01AA21460648FFF78F
:104E3C00D9FB2846FFF730F9044800F04BF802483C
:104E4C0007B030BD2CE7032030E70320E74D0B0003
:104E5C007047000038B5044614252A46002100F09E
:104E6C004DF825804025074925812846258200F0EC
:104E7C002FF804496060284600F02AF8E0602046CC
:104E8C0038BD00BFD4510B0030B50E4D2978BFF39F
:104E9C005B8F11F0010487B011D12846FFF7F7F8AA
:104EAC0068B101A8FFF7D6FF01AA21460648FFF713
:104EBC009DFD2846FFF7F0F8044800F00BF8024877
:104ECC0007B030BD44E7032048E703205D4E0B00DC
:104EDC00FFF7D9B8002301461A46184600F04CB823
:104EEC000A44914200F1FF3300D1704710B511F81C
:104EFC00014B03F8014F9142F9D110BD0244034616
:104F0C00934200D1704703F8011BF9E738B5104BF9
:104F1C001D68AB6B0446B3B91820FFF7D1FA0246F3
:104F2C00A86320B90B4B0C484221FFF7D9FA0B4967
:104F3C000B4BC0E900130B4B83600B2383810021C7
:104F4C000120C2E90401AB6B00221C615A6138BD1F
:104F5C0044E60320D5510B00EC510B000E33CDABC6
:104F6C0034126DE6ECDE0500034613F8012B002A23
:104F7C00FBD1181A013870472DE9F843DFF8B880D7
:104F8C000646D8F800001F460D46914600F056F82C
:104F9C00254B1C6834B9254C1C60254B13B11B6880
:104FAC00C4F8883063681F2B07DDD8F8000000F0C8
:104FBC0047F84FF0FF30BDE8F8834EB3D4F88800C3
:104FCC0088B91C4B23B9D8F8000000F038F8F0E78A
:104FDC004FF48470FFF774FA0028F4D00023C0E972
:104FEC004033C4F88800636840F8239001229A404B
:104FFC0000EB8301D0F800311343C0F80031022ECE
:10500C00C1F8807002BFD0F804311343C0F80431EA
:10501C006368D8F800005A1C0233626044F82350CD
:10502C0000F00EF80020C6E7E8E703205CE7032059
:10503C0000000000CD440B00A8E603207047704729
:10504C00704700001D400B0059400B0081400B00C5
:10505C0085400B0000000000000000000000000074
:10506C007B450B0071450B0067450B005D450B0044
:10507C0051450B0045450B0055470B005D470B0098
:10508C0039450B0031450B0027450B001D450B0026
:10509C008D470B00000000000000000099450B003C
:1050AC00E3450B00BB450B009B450B00C3450B00B8
:1050BC00CB450B00D3450B00DB450B00000000007B
:1050CC000000000025460B0015460B0017460B0090
:1050DC0061707000000000000000000015470B001C
:1050EC001F470B0029470B0033470B003D470B00B4
:1050FC0049470B0055470B005D470B0065470B00FC
:10510C0071470B0079470B0083470B008D470B0051
:10511C0025592D256D2D25645425483A254D3A25C4
:10512C0053257A0061736374696D6500000000009B
:10513C00000000007D490B00E9490B00C1490B0040
:10514C0079480B0091490B00AD490B009F490B00AE
:10515C00BB490B007F490B0083490B00000000008A
:10516C00000000003B4A0B00A34A0B00794A0B00DD
:10517C0079480B006B4A0B003D4A0B004D4A0B0063
:10518C009D4A0B005D4A0B00354A0B0000000000E5
:10519C00000000009B4B0B00914B0B00874B0B004E
:1051AC003D4B0B007B4B0B006F4B0B0055470B0023
:1051BC005D470B00634B0B005B4B0B00514B0B0023
:1051CC00474B0B008D470B00005245454E54206D4C
:1051DC00616C6C6F632073756363656564656400F3
:1051EC002F746D702F6A656E6B696E732D47434318
:1051FC002D31302D706970656C696E652D34385F9A
:10520C0032303230313132345F3136303631383041
:10521C003633392F7372632F6E65776C69622F6E1C
:10522C0065776C69622F6C6962632F7374646C6947
:10523C00622F72616E642E63000000004D410B0002
:10524C000D450B0085450B0005470B0065480B0011
:10525C0025490B0045490B0069490B00A54B0B0078
:04526C00000000003E
:10527000040000001400000003000000474E550029
:105280007556B554E2FB7DE033A8B6B14DAC807ED7
:045290002A1265AACF
:045294000000000016
:1052980030510B0048E60320000000000000000029
:1052A80000000000000000000000000000000000F6
:1052B80000000000000000000000000000000000E6
:1052C80000000000000000000000000000000000D6
:1052D80000000000000000000000000000000000C6
:1052E80000000000000000000000000000000000B6
:0C52F8000000000000000000ECE70320B4
:10530400FFFFFFFF00000102030405060708090A66
:105314000B0C0D0E0F101112131415161718191A61
:085324001B1C1D1E1F202800A8
:04532C007856341269
:04000003B000401CED
:00000001FF
